{
  "contractName": "HarryToken",
  "abi": [
    {
      "inputs": [],
      "stateMutability": "nonpayable",
      "type": "constructor"
    },
    {
      "anonymous": false,
      "inputs": [
        {
          "indexed": true,
          "internalType": "address",
          "name": "owner",
          "type": "address"
        },
        {
          "indexed": true,
          "internalType": "address",
          "name": "spender",
          "type": "address"
        },
        {
          "indexed": false,
          "internalType": "uint256",
          "name": "value",
          "type": "uint256"
        }
      ],
      "name": "Approval",
      "type": "event"
    },
    {
      "anonymous": false,
      "inputs": [
        {
          "indexed": true,
          "internalType": "address",
          "name": "previousOwner",
          "type": "address"
        },
        {
          "indexed": true,
          "internalType": "address",
          "name": "newOwner",
          "type": "address"
        }
      ],
      "name": "OwnershipTransferred",
      "type": "event"
    },
    {
      "anonymous": false,
      "inputs": [
        {
          "indexed": true,
          "internalType": "address",
          "name": "from",
          "type": "address"
        },
        {
          "indexed": true,
          "internalType": "address",
          "name": "to",
          "type": "address"
        },
        {
          "indexed": false,
          "internalType": "uint256",
          "name": "value",
          "type": "uint256"
        }
      ],
      "name": "Transfer",
      "type": "event"
    },
    {
      "inputs": [
        {
          "internalType": "address",
          "name": "owner",
          "type": "address"
        },
        {
          "internalType": "address",
          "name": "spender",
          "type": "address"
        }
      ],
      "name": "allowance",
      "outputs": [
        {
          "internalType": "uint256",
          "name": "",
          "type": "uint256"
        }
      ],
      "stateMutability": "view",
      "type": "function",
      "constant": true
    },
    {
      "inputs": [
        {
          "internalType": "address",
          "name": "spender",
          "type": "address"
        },
        {
          "internalType": "uint256",
          "name": "amount",
          "type": "uint256"
        }
      ],
      "name": "approve",
      "outputs": [
        {
          "internalType": "bool",
          "name": "",
          "type": "bool"
        }
      ],
      "stateMutability": "nonpayable",
      "type": "function"
    },
    {
      "inputs": [
        {
          "internalType": "address",
          "name": "account",
          "type": "address"
        }
      ],
      "name": "balanceOf",
      "outputs": [
        {
          "internalType": "uint256",
          "name": "",
          "type": "uint256"
        }
      ],
      "stateMutability": "view",
      "type": "function",
      "constant": true
    },
    {
      "inputs": [],
      "name": "cap",
      "outputs": [
        {
          "internalType": "uint256",
          "name": "",
          "type": "uint256"
        }
      ],
      "stateMutability": "view",
      "type": "function",
      "constant": true
    },
    {
      "inputs": [],
      "name": "decimals",
      "outputs": [
        {
          "internalType": "uint8",
          "name": "",
          "type": "uint8"
        }
      ],
      "stateMutability": "view",
      "type": "function",
      "constant": true
    },
    {
      "inputs": [
        {
          "internalType": "address",
          "name": "spender",
          "type": "address"
        },
        {
          "internalType": "uint256",
          "name": "subtractedValue",
          "type": "uint256"
        }
      ],
      "name": "decreaseAllowance",
      "outputs": [
        {
          "internalType": "bool",
          "name": "",
          "type": "bool"
        }
      ],
      "stateMutability": "nonpayable",
      "type": "function"
    },
    {
      "inputs": [
        {
          "internalType": "address",
          "name": "spender",
          "type": "address"
        },
        {
          "internalType": "uint256",
          "name": "addedValue",
          "type": "uint256"
        }
      ],
      "name": "increaseAllowance",
      "outputs": [
        {
          "internalType": "bool",
          "name": "",
          "type": "bool"
        }
      ],
      "stateMutability": "nonpayable",
      "type": "function"
    },
    {
      "inputs": [],
      "name": "name",
      "outputs": [
        {
          "internalType": "string",
          "name": "",
          "type": "string"
        }
      ],
      "stateMutability": "view",
      "type": "function",
      "constant": true
    },
    {
      "inputs": [],
      "name": "owner",
      "outputs": [
        {
          "internalType": "address",
          "name": "",
          "type": "address"
        }
      ],
      "stateMutability": "view",
      "type": "function",
      "constant": true
    },
    {
      "inputs": [],
      "name": "renounceOwnership",
      "outputs": [],
      "stateMutability": "nonpayable",
      "type": "function"
    },
    {
      "inputs": [],
      "name": "symbol",
      "outputs": [
        {
          "internalType": "string",
          "name": "",
          "type": "string"
        }
      ],
      "stateMutability": "view",
      "type": "function",
      "constant": true
    },
    {
      "inputs": [],
      "name": "totalSupply",
      "outputs": [
        {
          "internalType": "uint256",
          "name": "",
          "type": "uint256"
        }
      ],
      "stateMutability": "view",
      "type": "function",
      "constant": true
    },
    {
      "inputs": [
        {
          "internalType": "address",
          "name": "recipient",
          "type": "address"
        },
        {
          "internalType": "uint256",
          "name": "amount",
          "type": "uint256"
        }
      ],
      "name": "transfer",
      "outputs": [
        {
          "internalType": "bool",
          "name": "",
          "type": "bool"
        }
      ],
      "stateMutability": "nonpayable",
      "type": "function"
    },
    {
      "inputs": [
        {
          "internalType": "address",
          "name": "sender",
          "type": "address"
        },
        {
          "internalType": "address",
          "name": "recipient",
          "type": "address"
        },
        {
          "internalType": "uint256",
          "name": "amount",
          "type": "uint256"
        }
      ],
      "name": "transferFrom",
      "outputs": [
        {
          "internalType": "bool",
          "name": "",
          "type": "bool"
        }
      ],
      "stateMutability": "nonpayable",
      "type": "function"
    },
    {
      "inputs": [
        {
          "internalType": "address",
          "name": "newOwner",
          "type": "address"
        }
      ],
      "name": "transferOwnership",
      "outputs": [],
      "stateMutability": "nonpayable",
      "type": "function"
    }
  ],
  "bytecode": "0x60a0604052633b9aca0060065562000030670de0b6b3a76400006006546200017260201b620009c71790919060201c565b6007553480156200004057600080fd5b506007546040518060400160405280600a81526020017f4861727279546f6b656e000000000000000000000000000000000000000000008152506040518060400160405280600381526020017f48525400000000000000000000000000000000000000000000000000000000008152508160039080519060200190620000c8929190620003db565b508060049080519060200190620000e1929190620003db565b505050600081116200012a576040517f08c379a00000000000000000000000000000000000000000000000000000000081526004016200012190620004ec565b60405180910390fd5b80608081815250505062000153620001476200018a60201b60201c565b6200019260201b60201c565b6200016c336007546200025860201b620009dd1760201c565b6200070a565b6000818362000182919062000547565b905092915050565b600033905090565b6000600560009054906101000a900473ffffffffffffffffffffffffffffffffffffffff16905081600560006101000a81548173ffffffffffffffffffffffffffffffffffffffff021916908373ffffffffffffffffffffffffffffffffffffffff1602179055508173ffffffffffffffffffffffffffffffffffffffff168173ffffffffffffffffffffffffffffffffffffffff167f8be0079c531659141344cd1fd0a4f28419497f9722a3daafe3b4186f6b6457e060405160405180910390a35050565b600073ffffffffffffffffffffffffffffffffffffffff168273ffffffffffffffffffffffffffffffffffffffff161415620002cb576040517f08c379a0000000000000000000000000000000000000000000000000000000008152600401620002c290620005f8565b60405180910390fd5b620002df60008383620003d160201b60201c565b8060026000828254620002f391906200061a565b92505081905550806000808473ffffffffffffffffffffffffffffffffffffffff1673ffffffffffffffffffffffffffffffffffffffff16815260200190815260200160002060008282546200034a91906200061a565b925050819055508173ffffffffffffffffffffffffffffffffffffffff16600073ffffffffffffffffffffffffffffffffffffffff167fddf252ad1be2c89b69c2b068fc378daa952ba7f163c4a11628f55a4df523b3ef83604051620003b1919062000688565b60405180910390a3620003cd60008383620003d660201b60201c565b5050565b505050565b505050565b828054620003e990620006d4565b90600052602060002090601f0160209004810192826200040d576000855562000459565b82601f106200042857805160ff191683800117855562000459565b8280016001018555821562000459579182015b82811115620004585782518255916020019190600101906200043b565b5b5090506200046891906200046c565b5090565b5b80821115620004875760008160009055506001016200046d565b5090565b600082825260208201905092915050565b7f45524332304361707065643a2063617020697320300000000000000000000000600082015250565b6000620004d46015836200048b565b9150620004e1826200049c565b602082019050919050565b600060208201905081810360008301526200050781620004c5565b9050919050565b6000819050919050565b7f4e487b7100000000000000000000000000000000000000000000000000000000600052601160045260246000fd5b600062000554826200050e565b915062000561836200050e565b9250817fffffffffffffffffffffffffffffffffffffffffffffffffffffffffffffffff04831182151516156200059d576200059c62000518565b5b828202905092915050565b7f45524332303a206d696e7420746f20746865207a65726f206164647265737300600082015250565b6000620005e0601f836200048b565b9150620005ed82620005a8565b602082019050919050565b600060208201905081810360008301526200061381620005d1565b9050919050565b600062000627826200050e565b915062000634836200050e565b9250827fffffffffffffffffffffffffffffffffffffffffffffffffffffffffffffffff038211156200066c576200066b62000518565b5b828201905092915050565b62000682816200050e565b82525050565b60006020820190506200069f600083018462000677565b92915050565b7f4e487b7100000000000000000000000000000000000000000000000000000000600052602260045260246000fd5b60006002820490506001821680620006ed57607f821691505b60208210811415620007045762000703620006a5565b5b50919050565b608051611a546200072660003960006104e30152611a546000f3fe608060405234801561001057600080fd5b50600436106100f55760003560e01c806370a0823111610097578063a457c2d711610066578063a457c2d714610278578063a9059cbb146102a8578063dd62ed3e146102d8578063f2fde38b14610308576100f5565b806370a0823114610202578063715018a6146102325780638da5cb5b1461023c57806395d89b411461025a576100f5565b806323b872dd116100d357806323b872dd14610166578063313ce56714610196578063355274ea146101b457806339509351146101d2576100f5565b806306fdde03146100fa578063095ea7b31461011857806318160ddd14610148575b600080fd5b610102610324565b60405161010f91906110fa565b60405180910390f35b610132600480360381019061012d91906111b5565b6103b6565b60405161013f9190611210565b60405180910390f35b6101506103d4565b60405161015d919061123a565b60405180910390f35b610180600480360381019061017b9190611255565b6103de565b60405161018d9190611210565b60405180910390f35b61019e6104d6565b6040516101ab91906112c4565b60405180910390f35b6101bc6104df565b6040516101c9919061123a565b60405180910390f35b6101ec60048036038101906101e791906111b5565b610507565b6040516101f99190611210565b60405180910390f35b61021c600480360381019061021791906112df565b6105b3565b604051610229919061123a565b60405180910390f35b61023a6105fb565b005b610244610683565b604051610251919061131b565b60405180910390f35b6102626106ad565b60405161026f91906110fa565b60405180910390f35b610292600480360381019061028d91906111b5565b61073f565b60405161029f9190611210565b60405180910390f35b6102c260048036038101906102bd91906111b5565b61082a565b6040516102cf9190611210565b60405180910390f35b6102f260048036038101906102ed9190611336565b610848565b6040516102ff919061123a565b60405180910390f35b610322600480360381019061031d91906112df565b6108cf565b005b606060038054610333906113a5565b80601f016020809104026020016040519081016040528092919081815260200182805461035f906113a5565b80156103ac5780601f10610381576101008083540402835291602001916103ac565b820191906000526020600020905b81548152906001019060200180831161038f57829003601f168201915b5050505050905090565b60006103ca6103c3610b3d565b8484610b45565b6001905092915050565b6000600254905090565b60006103eb848484610d10565b6000600160008673ffffffffffffffffffffffffffffffffffffffff1673ffffffffffffffffffffffffffffffffffffffff1681526020019081526020016000206000610436610b3d565b73ffffffffffffffffffffffffffffffffffffffff1673ffffffffffffffffffffffffffffffffffffffff168152602001908152602001600020549050828110156104b6576040517f08c379a00000000000000000000000000000000000000000000000000000000081526004016104ad90611449565b60405180910390fd5b6104ca856104c2610b3d565b858403610b45565b60019150509392505050565b60006012905090565b60007f0000000000000000000000000000000000000000000000000000000000000000905090565b60006105a9610514610b3d565b848460016000610522610b3d565b73ffffffffffffffffffffffffffffffffffffffff1673ffffffffffffffffffffffffffffffffffffffff16815260200190815260200160002060008873ffffffffffffffffffffffffffffffffffffffff1673ffffffffffffffffffffffffffffffffffffffff168152602001908152602001600020546105a49190611498565b610b45565b6001905092915050565b60008060008373ffffffffffffffffffffffffffffffffffffffff1673ffffffffffffffffffffffffffffffffffffffff168152602001908152602001600020549050919050565b610603610b3d565b73ffffffffffffffffffffffffffffffffffffffff16610621610683565b73ffffffffffffffffffffffffffffffffffffffff1614610677576040517f08c379a000000000000000000000000000000000000000000000000000000000815260040161066e9061153a565b60405180910390fd5b6106816000610f91565b565b6000600560009054906101000a900473ffffffffffffffffffffffffffffffffffffffff16905090565b6060600480546106bc906113a5565b80601f01602080910402602001604051908101604052809291908181526020018280546106e8906113a5565b80156107355780601f1061070a57610100808354040283529160200191610735565b820191906000526020600020905b81548152906001019060200180831161071857829003601f168201915b5050505050905090565b6000806001600061074e610b3d565b73ffffffffffffffffffffffffffffffffffffffff1673ffffffffffffffffffffffffffffffffffffffff16815260200190815260200160002060008573ffffffffffffffffffffffffffffffffffffffff1673ffffffffffffffffffffffffffffffffffffffff1681526020019081526020016000205490508281101561080b576040517f08c379a0000000000000000000000000000000000000000000000000000000008152600401610802906115cc565b60405180910390fd5b61081f610816610b3d565b85858403610b45565b600191505092915050565b600061083e610837610b3d565b8484610d10565b6001905092915050565b6000600160008473ffffffffffffffffffffffffffffffffffffffff1673ffffffffffffffffffffffffffffffffffffffff16815260200190815260200160002060008373ffffffffffffffffffffffffffffffffffffffff1673ffffffffffffffffffffffffffffffffffffffff16815260200190815260200160002054905092915050565b6108d7610b3d565b73ffffffffffffffffffffffffffffffffffffffff166108f5610683565b73ffffffffffffffffffffffffffffffffffffffff161461094b576040517f08c379a00000000000000000000000000000000000000000000000000000000081526004016109429061153a565b60405180910390fd5b600073ffffffffffffffffffffffffffffffffffffffff168173ffffffffffffffffffffffffffffffffffffffff1614156109bb576040517f08c379a00000000000000000000000000000000000000000000000000000000081526004016109b29061165e565b60405180910390fd5b6109c481610f91565b50565b600081836109d5919061167e565b905092915050565b600073ffffffffffffffffffffffffffffffffffffffff168273ffffffffffffffffffffffffffffffffffffffff161415610a4d576040517f08c379a0000000000000000000000000000000000000000000000000000000008152600401610a4490611724565b60405180910390fd5b610a5960008383611057565b8060026000828254610a6b9190611498565b92505081905550806000808473ffffffffffffffffffffffffffffffffffffffff1673ffffffffffffffffffffffffffffffffffffffff1681526020019081526020016000206000828254610ac09190611498565b925050819055508173ffffffffffffffffffffffffffffffffffffffff16600073ffffffffffffffffffffffffffffffffffffffff167fddf252ad1be2c89b69c2b068fc378daa952ba7f163c4a11628f55a4df523b3ef83604051610b25919061123a565b60405180910390a3610b396000838361105c565b5050565b600033905090565b600073ffffffffffffffffffffffffffffffffffffffff168373ffffffffffffffffffffffffffffffffffffffff161415610bb5576040517f08c379a0000000000000000000000000000000000000000000000000000000008152600401610bac906117b6565b60405180910390fd5b600073ffffffffffffffffffffffffffffffffffffffff168273ffffffffffffffffffffffffffffffffffffffff161415610c25576040517f08c379a0000000000000000000000000000000000000000000000000000000008152600401610c1c90611848565b60405180910390fd5b80600160008573ffffffffffffffffffffffffffffffffffffffff1673ffffffffffffffffffffffffffffffffffffffff16815260200190815260200160002060008473ffffffffffffffffffffffffffffffffffffffff1673ffffffffffffffffffffffffffffffffffffffff168152602001908152602001600020819055508173ffffffffffffffffffffffffffffffffffffffff168373ffffffffffffffffffffffffffffffffffffffff167f8c5be1e5ebec7d5bd14f71427d1e84f3dd0314c0f7b2291e5b200ac8c7c3b92583604051610d03919061123a565b60405180910390a3505050565b600073ffffffffffffffffffffffffffffffffffffffff168373ffffffffffffffffffffffffffffffffffffffff161415610d80576040517f08c379a0000000000000000000000000000000000000000000000000000000008152600401610d77906118da565b60405180910390fd5b600073ffffffffffffffffffffffffffffffffffffffff168273ffffffffffffffffffffffffffffffffffffffff161415610df0576040517f08c379a0000000000000000000000000000000000000000000000000000000008152600401610de79061196c565b60405180910390fd5b610dfb838383611057565b60008060008573ffffffffffffffffffffffffffffffffffffffff1673ffffffffffffffffffffffffffffffffffffffff16815260200190815260200160002054905081811015610e81576040517f08c379a0000000000000000000000000000000000000000000000000000000008152600401610e78906119fe565b60405180910390fd5b8181036000808673ffffffffffffffffffffffffffffffffffffffff1673ffffffffffffffffffffffffffffffffffffffff16815260200190815260200160002081905550816000808573ffffffffffffffffffffffffffffffffffffffff1673ffffffffffffffffffffffffffffffffffffffff1681526020019081526020016000206000828254610f149190611498565b925050819055508273ffffffffffffffffffffffffffffffffffffffff168473ffffffffffffffffffffffffffffffffffffffff167fddf252ad1be2c89b69c2b068fc378daa952ba7f163c4a11628f55a4df523b3ef84604051610f78919061123a565b60405180910390a3610f8b84848461105c565b50505050565b6000600560009054906101000a900473ffffffffffffffffffffffffffffffffffffffff16905081600560006101000a81548173ffffffffffffffffffffffffffffffffffffffff021916908373ffffffffffffffffffffffffffffffffffffffff1602179055508173ffffffffffffffffffffffffffffffffffffffff168173ffffffffffffffffffffffffffffffffffffffff167f8be0079c531659141344cd1fd0a4f28419497f9722a3daafe3b4186f6b6457e060405160405180910390a35050565b505050565b505050565b600081519050919050565b600082825260208201905092915050565b60005b8381101561109b578082015181840152602081019050611080565b838111156110aa576000848401525b50505050565b6000601f19601f8301169050919050565b60006110cc82611061565b6110d6818561106c565b93506110e681856020860161107d565b6110ef816110b0565b840191505092915050565b6000602082019050818103600083015261111481846110c1565b905092915050565b600080fd5b600073ffffffffffffffffffffffffffffffffffffffff82169050919050565b600061114c82611121565b9050919050565b61115c81611141565b811461116757600080fd5b50565b60008135905061117981611153565b92915050565b6000819050919050565b6111928161117f565b811461119d57600080fd5b50565b6000813590506111af81611189565b92915050565b600080604083850312156111cc576111cb61111c565b5b60006111da8582860161116a565b92505060206111eb858286016111a0565b9150509250929050565b60008115159050919050565b61120a816111f5565b82525050565b60006020820190506112256000830184611201565b92915050565b6112348161117f565b82525050565b600060208201905061124f600083018461122b565b92915050565b60008060006060848603121561126e5761126d61111c565b5b600061127c8682870161116a565b935050602061128d8682870161116a565b925050604061129e868287016111a0565b9150509250925092565b600060ff82169050919050565b6112be816112a8565b82525050565b60006020820190506112d960008301846112b5565b92915050565b6000602082840312156112f5576112f461111c565b5b60006113038482850161116a565b91505092915050565b61131581611141565b82525050565b6000602082019050611330600083018461130c565b92915050565b6000806040838503121561134d5761134c61111c565b5b600061135b8582860161116a565b925050602061136c8582860161116a565b9150509250929050565b7f4e487b7100000000000000000000000000000000000000000000000000000000600052602260045260246000fd5b600060028204905060018216806113bd57607f821691505b602082108114156113d1576113d0611376565b5b50919050565b7f45524332303a207472616e7366657220616d6f756e742065786365656473206160008201527f6c6c6f77616e6365000000000000000000000000000000000000000000000000602082015250565b600061143360288361106c565b915061143e826113d7565b604082019050919050565b6000602082019050818103600083015261146281611426565b9050919050565b7f4e487b7100000000000000000000000000000000000000000000000000000000600052601160045260246000fd5b60006114a38261117f565b91506114ae8361117f565b9250827fffffffffffffffffffffffffffffffffffffffffffffffffffffffffffffffff038211156114e3576114e2611469565b5b828201905092915050565b7f4f776e61626c653a2063616c6c6572206973206e6f7420746865206f776e6572600082015250565b600061152460208361106c565b915061152f826114ee565b602082019050919050565b6000602082019050818103600083015261155381611517565b9050919050565b7f45524332303a2064656372656173656420616c6c6f77616e63652062656c6f7760008201527f207a65726f000000000000000000000000000000000000000000000000000000602082015250565b60006115b660258361106c565b91506115c18261155a565b604082019050919050565b600060208201905081810360008301526115e5816115a9565b9050919050565b7f4f776e61626c653a206e6577206f776e657220697320746865207a65726f206160008201527f6464726573730000000000000000000000000000000000000000000000000000602082015250565b600061164860268361106c565b9150611653826115ec565b604082019050919050565b600060208201905081810360008301526116778161163b565b9050919050565b60006116898261117f565b91506116948361117f565b9250817fffffffffffffffffffffffffffffffffffffffffffffffffffffffffffffffff04831182151516156116cd576116cc611469565b5b828202905092915050565b7f45524332303a206d696e7420746f20746865207a65726f206164647265737300600082015250565b600061170e601f8361106c565b9150611719826116d8565b602082019050919050565b6000602082019050818103600083015261173d81611701565b9050919050565b7f45524332303a20617070726f76652066726f6d20746865207a65726f2061646460008201527f7265737300000000000000000000000000000000000000000000000000000000602082015250565b60006117a060248361106c565b91506117ab82611744565b604082019050919050565b600060208201905081810360008301526117cf81611793565b9050919050565b7f45524332303a20617070726f766520746f20746865207a65726f20616464726560008201527f7373000000000000000000000000000000000000000000000000000000000000602082015250565b600061183260228361106c565b915061183d826117d6565b604082019050919050565b6000602082019050818103600083015261186181611825565b9050919050565b7f45524332303a207472616e736665722066726f6d20746865207a65726f20616460008201527f6472657373000000000000000000000000000000000000000000000000000000602082015250565b60006118c460258361106c565b91506118cf82611868565b604082019050919050565b600060208201905081810360008301526118f3816118b7565b9050919050565b7f45524332303a207472616e7366657220746f20746865207a65726f206164647260008201527f6573730000000000000000000000000000000000000000000000000000000000602082015250565b600061195660238361106c565b9150611961826118fa565b604082019050919050565b6000602082019050818103600083015261198581611949565b9050919050565b7f45524332303a207472616e7366657220616d6f756e742065786365656473206260008201527f616c616e63650000000000000000000000000000000000000000000000000000602082015250565b60006119e860268361106c565b91506119f38261198c565b604082019050919050565b60006020820190508181036000830152611a17816119db565b905091905056fea26469706673582212203826ef3a5de3afab2cab1812342610ad642dde1745bec00e2339ec394fc5ce4e64736f6c634300080a0033",
  "immutableReferences": {
    "736": [
      {
        "length": 32,
        "start": 1251
      }
    ]
  },
  "source": "// SPDX-License-Identifier: MIT\npragma solidity ^0.8.0;\n\nimport \"@openzeppelin/contracts/token/ERC20/ERC20.sol\";\nimport \"@openzeppelin/contracts/token/ERC20/extensions/ERC20Capped.sol\";\nimport \"@openzeppelin/contracts/utils/math/SafeMath.sol\";\nimport \"@openzeppelin/contracts/access/Ownable.sol\";\n\n/**\n * @dev Example of the ERC20 Token.\n */\n\ncontract HarryToken is ERC20Capped, Ownable {\n\n\tusing SafeMath for uint256;\n\n\tuint256 CAP = 1000000000;\n\tuint256 TOTALSUPPLY = CAP.mul(10 ** 18);\n\n\tconstructor() ERC20(\"HarryToken\", \"HRT\") ERC20Capped(TOTALSUPPLY) Ownable()\n\t{\n\t\tERC20._mint(msg.sender, TOTALSUPPLY);\n\t}\n}",
  "sourcePath": "/home/gperez/proyectos/harrytoken/contracts/harrytoken.sol",
  "compiler": {
    "name": "solc",
    "version": "0.8.10+commit.fc410830.Emscripten.clang"
  },
  "schemaVersion": "3.4.3",
  "updatedAt": "2022-01-20T14:12:55.025Z",
  "networkType": "ethereum",
  "devdoc": {
    "details": "Example of the ERC20 Token.",
    "kind": "dev",
    "methods": {
      "allowance(address,address)": {
        "details": "See {IERC20-allowance}."
      },
      "approve(address,uint256)": {
        "details": "See {IERC20-approve}. Requirements: - `spender` cannot be the zero address."
      },
      "balanceOf(address)": {
        "details": "See {IERC20-balanceOf}."
      },
      "cap()": {
        "details": "Returns the cap on the token's total supply."
      },
      "decimals()": {
        "details": "Returns the number of decimals used to get its user representation. For example, if `decimals` equals `2`, a balance of `505` tokens should be displayed to a user as `5.05` (`505 / 10 ** 2`). Tokens usually opt for a value of 18, imitating the relationship between Ether and Wei. This is the value {ERC20} uses, unless this function is overridden; NOTE: This information is only used for _display_ purposes: it in no way affects any of the arithmetic of the contract, including {IERC20-balanceOf} and {IERC20-transfer}."
      },
      "decreaseAllowance(address,uint256)": {
        "details": "Atomically decreases the allowance granted to `spender` by the caller. This is an alternative to {approve} that can be used as a mitigation for problems described in {IERC20-approve}. Emits an {Approval} event indicating the updated allowance. Requirements: - `spender` cannot be the zero address. - `spender` must have allowance for the caller of at least `subtractedValue`."
      },
      "increaseAllowance(address,uint256)": {
        "details": "Atomically increases the allowance granted to `spender` by the caller. This is an alternative to {approve} that can be used as a mitigation for problems described in {IERC20-approve}. Emits an {Approval} event indicating the updated allowance. Requirements: - `spender` cannot be the zero address."
      },
      "name()": {
        "details": "Returns the name of the token."
      },
      "owner()": {
        "details": "Returns the address of the current owner."
      },
      "renounceOwnership()": {
        "details": "Leaves the contract without owner. It will not be possible to call `onlyOwner` functions anymore. Can only be called by the current owner. NOTE: Renouncing ownership will leave the contract without an owner, thereby removing any functionality that is only available to the owner."
      },
      "symbol()": {
        "details": "Returns the symbol of the token, usually a shorter version of the name."
      },
      "totalSupply()": {
        "details": "See {IERC20-totalSupply}."
      },
      "transfer(address,uint256)": {
        "details": "See {IERC20-transfer}. Requirements: - `recipient` cannot be the zero address. - the caller must have a balance of at least `amount`."
      },
      "transferFrom(address,address,uint256)": {
        "details": "See {IERC20-transferFrom}. Emits an {Approval} event indicating the updated allowance. This is not required by the EIP. See the note at the beginning of {ERC20}. Requirements: - `sender` and `recipient` cannot be the zero address. - `sender` must have a balance of at least `amount`. - the caller must have allowance for ``sender``'s tokens of at least `amount`."
      },
      "transferOwnership(address)": {
        "details": "Transfers ownership of the contract to a new account (`newOwner`). Can only be called by the current owner."
      }
    },
    "version": 1
  },
  "userdoc": {
    "kind": "user",
    "methods": {},
    "version": 1
  }
}